{
  "abi": [
    {
      "inputs": [
        {
          "internalType": "address",
          "name": "_prompty",
          "type": "address"
        }
      ],
      "stateMutability": "nonpayable",
      "type": "constructor"
    },
    {
      "anonymous": false,
      "inputs": [
        {
          "indexed": true,
          "internalType": "address",
          "name": "previousOwner",
          "type": "address"
        },
        {
          "indexed": true,
          "internalType": "address",
          "name": "newOwner",
          "type": "address"
        }
      ],
      "name": "OwnershipTransferred",
      "type": "event"
    },
    {
      "inputs": [],
      "name": "owner",
      "outputs": [
        {
          "internalType": "address",
          "name": "",
          "type": "address"
        }
      ],
      "stateMutability": "view",
      "type": "function"
    },
    {
      "inputs": [],
      "name": "prompty",
      "outputs": [
        {
          "internalType": "contract IPrompty",
          "name": "",
          "type": "address"
        }
      ],
      "stateMutability": "view",
      "type": "function"
    },
    {
      "inputs": [],
      "name": "renounceOwnership",
      "outputs": [],
      "stateMutability": "nonpayable",
      "type": "function"
    },
    {
      "inputs": [
        {
          "internalType": "address",
          "name": "newOwner",
          "type": "address"
        }
      ],
      "name": "transferOwnership",
      "outputs": [],
      "stateMutability": "nonpayable",
      "type": "function"
    },
    {
      "inputs": [
        {
          "internalType": "address",
          "name": "_prompty",
          "type": "address"
        }
      ],
      "name": "updatePrompty",
      "outputs": [],
      "stateMutability": "nonpayable",
      "type": "function"
    }
  ],
  "bytecode": {
    "object": "0x608060405234801561001057600080fd5b5060405161038038038061038083398101604081905261002f916100ad565b6100383361005d565b600180546001600160a01b0319166001600160a01b03929092169190911790556100dd565b600080546001600160a01b038381166001600160a01b0319831681178455604051919092169283917f8be0079c531659141344cd1fd0a4f28419497f9722a3daafe3b4186f6b6457e09190a35050565b6000602082840312156100bf57600080fd5b81516001600160a01b03811681146100d657600080fd5b9392505050565b610294806100ec6000396000f3fe608060405234801561001057600080fd5b50600436106100575760003560e01c8063715018a61461005c5780638da5cb5b14610066578063e2a79abb1461008f578063e44f0e8c146100a2578063f2fde38b146100b5575b600080fd5b6100646100c8565b005b6000546001600160a01b03165b6040516001600160a01b03909116815260200160405180910390f35b61006461009d36600461022e565b6100dc565b600154610073906001600160a01b031681565b6100646100c336600461022e565b610106565b6100d0610184565b6100da60006101de565b565b6100e4610184565b600180546001600160a01b0319166001600160a01b0392909216919091179055565b61010e610184565b6001600160a01b0381166101785760405162461bcd60e51b815260206004820152602660248201527f4f776e61626c653a206e6577206f776e657220697320746865207a65726f206160448201526564647265737360d01b60648201526084015b60405180910390fd5b610181816101de565b50565b6000546001600160a01b031633146100da5760405162461bcd60e51b815260206004820181905260248201527f4f776e61626c653a2063616c6c6572206973206e6f7420746865206f776e6572604482015260640161016f565b600080546001600160a01b038381166001600160a01b0319831681178455604051919092169283917f8be0079c531659141344cd1fd0a4f28419497f9722a3daafe3b4186f6b6457e09190a35050565b60006020828403121561024057600080fd5b81356001600160a01b038116811461025757600080fd5b939250505056fea2646970667358221220de208913a3e5532e3044880e0d33eb434c58408b8d7cd0a670435d74239a560364736f6c634300080d0033",
    "linkReferences": {}
  },
  "methodIdentifiers": {
    "owner()": "8da5cb5b",
    "prompty()": "e44f0e8c",
    "renounceOwnership()": "715018a6",
    "transferOwnership(address)": "f2fde38b",
    "updatePrompty(address)": "e2a79abb"
  },
  "id": 11
}