{
  "abi": [
    {
      "inputs": [],
      "name": "AlreadyResponded",
      "type": "error"
    },
    {
      "inputs": [],
      "name": "InvalidPrompt",
      "type": "error"
    },
    {
      "inputs": [],
      "name": "InvalidPromptID",
      "type": "error"
    },
    {
      "inputs": [],
      "name": "InvalidPromptParams",
      "type": "error"
    },
    {
      "inputs": [],
      "name": "NotAllowed",
      "type": "error"
    },
    {
      "inputs": [],
      "name": "PromptExpired",
      "type": "error"
    },
    {
      "inputs": [],
      "name": "ResponseTooLong",
      "type": "error"
    },
    {
      "inputs": [],
      "name": "ResponseTooShort",
      "type": "error"
    },
    {
      "anonymous": false,
      "inputs": [
        {
          "indexed": false,
          "internalType": "uint256",
          "name": "id",
          "type": "uint256"
        },
        {
          "indexed": false,
          "internalType": "string",
          "name": "name",
          "type": "string"
        },
        {
          "indexed": false,
          "internalType": "string",
          "name": "description",
          "type": "string"
        },
        {
          "indexed": false,
          "internalType": "bool",
          "name": "isVisible",
          "type": "bool"
        }
      ],
      "name": "InstanceCreated",
      "type": "event"
    },
    {
      "anonymous": false,
      "inputs": [
        {
          "indexed": false,
          "internalType": "uint256",
          "name": "id",
          "type": "uint256"
        },
        {
          "indexed": false,
          "internalType": "string",
          "name": "name",
          "type": "string"
        },
        {
          "indexed": false,
          "internalType": "string",
          "name": "description",
          "type": "string"
        },
        {
          "indexed": false,
          "internalType": "bool",
          "name": "isVisible",
          "type": "bool"
        }
      ],
      "name": "InstanceUpdated",
      "type": "event"
    },
    {
      "anonymous": false,
      "inputs": [
        {
          "indexed": false,
          "internalType": "uint256",
          "name": "instanceId",
          "type": "uint256"
        },
        {
          "indexed": false,
          "internalType": "uint256",
          "name": "promptId",
          "type": "uint256"
        },
        {
          "indexed": false,
          "internalType": "address",
          "name": "creator",
          "type": "address"
        },
        {
          "indexed": false,
          "internalType": "string",
          "name": "prompt",
          "type": "string"
        },
        {
          "indexed": false,
          "internalType": "uint256",
          "name": "startTime",
          "type": "uint256"
        },
        {
          "indexed": false,
          "internalType": "uint256",
          "name": "endTime",
          "type": "uint256"
        },
        {
          "indexed": false,
          "internalType": "uint128",
          "name": "minChars",
          "type": "uint128"
        },
        {
          "indexed": false,
          "internalType": "uint128",
          "name": "maxChars",
          "type": "uint128"
        }
      ],
      "name": "PromptCreated",
      "type": "event"
    },
    {
      "anonymous": false,
      "inputs": [
        {
          "indexed": false,
          "internalType": "uint256",
          "name": "promptId",
          "type": "uint256"
        },
        {
          "indexed": false,
          "internalType": "address",
          "name": "responder",
          "type": "address"
        },
        {
          "indexed": false,
          "internalType": "string",
          "name": "response",
          "type": "string"
        }
      ],
      "name": "PromptResponse",
      "type": "event"
    },
    {
      "anonymous": false,
      "inputs": [
        {
          "indexed": false,
          "internalType": "uint256",
          "name": "instanceId",
          "type": "uint256"
        },
        {
          "indexed": false,
          "internalType": "address",
          "name": "responder",
          "type": "address"
        }
      ],
      "name": "ResponderAdded",
      "type": "event"
    },
    {
      "inputs": [
        {
          "internalType": "uint256",
          "name": "instanceID",
          "type": "uint256"
        },
        {
          "internalType": "address[]",
          "name": "allowedResponders",
          "type": "address[]"
        }
      ],
      "name": "addResponders",
      "outputs": [],
      "stateMutability": "nonpayable",
      "type": "function"
    },
    {
      "inputs": [
        {
          "internalType": "address[]",
          "name": "allowedResponders",
          "type": "address[]"
        },
        {
          "internalType": "string",
          "name": "name",
          "type": "string"
        },
        {
          "internalType": "string",
          "name": "description",
          "type": "string"
        },
        {
          "internalType": "bool",
          "name": "isVisible",
          "type": "bool"
        }
      ],
      "name": "createInstance",
      "outputs": [],
      "stateMutability": "nonpayable",
      "type": "function"
    },
    {
      "inputs": [
        {
          "internalType": "uint256",
          "name": "instanceId",
          "type": "uint256"
        },
        {
          "internalType": "string",
          "name": "prompt",
          "type": "string"
        },
        {
          "internalType": "uint256",
          "name": "endTime",
          "type": "uint256"
        },
        {
          "internalType": "uint128",
          "name": "minChars",
          "type": "uint128"
        },
        {
          "internalType": "uint128",
          "name": "maxChars",
          "type": "uint128"
        }
      ],
      "name": "createPrompt",
      "outputs": [],
      "stateMutability": "nonpayable",
      "type": "function"
    },
    {
      "inputs": [],
      "name": "currentPromptId",
      "outputs": [
        {
          "internalType": "uint256",
          "name": "",
          "type": "uint256"
        }
      ],
      "stateMutability": "view",
      "type": "function"
    },
    {
      "inputs": [
        {
          "internalType": "uint256",
          "name": "",
          "type": "uint256"
        }
      ],
      "name": "instances",
      "outputs": [
        {
          "internalType": "uint256",
          "name": "id",
          "type": "uint256"
        },
        {
          "internalType": "string",
          "name": "name",
          "type": "string"
        },
        {
          "internalType": "bool",
          "name": "isVisible",
          "type": "bool"
        },
        {
          "internalType": "string",
          "name": "description",
          "type": "string"
        }
      ],
      "stateMutability": "view",
      "type": "function"
    },
    {
      "inputs": [
        {
          "internalType": "uint256",
          "name": "",
          "type": "uint256"
        }
      ],
      "name": "prompts",
      "outputs": [
        {
          "internalType": "uint256",
          "name": "startTime",
          "type": "uint256"
        },
        {
          "internalType": "uint256",
          "name": "endTime",
          "type": "uint256"
        },
        {
          "internalType": "uint128",
          "name": "minChars",
          "type": "uint128"
        },
        {
          "internalType": "uint128",
          "name": "maxChars",
          "type": "uint128"
        }
      ],
      "stateMutability": "view",
      "type": "function"
    },
    {
      "inputs": [
        {
          "internalType": "uint256",
          "name": "instanceId",
          "type": "uint256"
        },
        {
          "internalType": "uint256",
          "name": "promptId",
          "type": "uint256"
        },
        {
          "internalType": "string",
          "name": "response",
          "type": "string"
        }
      ],
      "name": "respond",
      "outputs": [],
      "stateMutability": "nonpayable",
      "type": "function"
    },
    {
      "inputs": [
        {
          "internalType": "uint256",
          "name": "instanceId",
          "type": "uint256"
        },
        {
          "internalType": "string",
          "name": "description",
          "type": "string"
        }
      ],
      "name": "updateDescription",
      "outputs": [],
      "stateMutability": "nonpayable",
      "type": "function"
    },
    {
      "inputs": [
        {
          "internalType": "uint256",
          "name": "instanceId",
          "type": "uint256"
        },
        {
          "internalType": "bool",
          "name": "isVisible",
          "type": "bool"
        }
      ],
      "name": "updateVisibility",
      "outputs": [],
      "stateMutability": "nonpayable",
      "type": "function"
    }
  ],
  "bytecode": {
    "object": "0x60806040526000805534801561001457600080fd5b50611118806100246000396000f3fe608060405234801561001057600080fd5b50600436106100935760003560e01c8063c0b9316711610066578063c0b93167146100ff578063cb90a80314610112578063d4cf9af714610125578063f2e7162d14610196578063f61044da146101a957600080fd5b806314dee4b31461009857806317e7d99d146100ad5780635542bbae146100c9578063a2f7b3a5146100dc575b600080fd5b6100ab6100a6366004610b46565b6101bc565b005b6100b660005481565b6040519081526020015b60405180910390f35b6100ab6100d7366004610ba9565b610274565b6100ef6100ea366004610c1b565b6103fa565b6040516100c09493929190610c81565b6100ab61010d366004610cbf565b61053c565b6100ab610120366004610d1f565b6106f1565b610167610133366004610c1b565b60016020819052600091825260409091208054918101546002909101546001600160801b0380821691600160801b90041684565b6040805194855260208501939093526001600160801b03918216928401929092521660608201526080016100c0565b6100ab6101a4366004610dd6565b610797565b6100ab6101b7366004610e6f565b610906565b600082815260026020908152604080832033845260040190915281205460ff16151590036101fd57604051631eb49d6d60e11b815260040160405180910390fd5b6000828152600260209081526040909120825190916102239160038401918501906109f6565b5060028101546040517f684102838bf7c97f957e6c1fe2f1e0316964904f1575bf7de9a493b8fdab1f7d916102679186916001860191600387019160ff1690610f85565b60405180910390a1505050565b600085815260026020908152604080832033845260040190915281205460ff16151590036102b557604051631eb49d6d60e11b815260040160405180910390fd5b83516000036102d7576040516345df16e360e11b815260040160405180910390fd5b806001600160801b0316826001600160801b0316111561030a57604051633e740fb360e21b815260040160405180910390fd5b6000826001600160801b03161161033457604051633e740fb360e21b815260040160405180910390fd5b611000816001600160801b03161061035f57604051633e740fb360e21b815260040160405180910390fd5b600080548152600160208190526040808320428082559281018790556001600160801b03858116600160801b02908716176002820155925490517f70b5821a021a727fb4dfb84b978ae0630559f379dc74f488ef8315f4a1bbfd4f926103d3928a92909133918b91908b908b908b90610fc4565b60405180910390a160016000808282546103ed919061103d565b9091555050505050505050565b6002602052600090815260409020805460018201805491929161041c90610eac565b80601f016020809104026020016040519081016040528092919081815260200182805461044890610eac565b80156104955780601f1061046a57610100808354040283529160200191610495565b820191906000526020600020905b81548152906001019060200180831161047857829003601f168201915b5050506002840154600385018054949560ff9092169491935091506104b990610eac565b80601f01602080910402602001604051908101604052809291908181526020018280546104e590610eac565b80156105325780601f1061050757610100808354040283529160200191610532565b820191906000526020600020905b81548152906001019060200180831161051557829003601f168201915b5050505050905084565b600083815260026020908152604080832033845260040190915281205460ff161515900361057d57604051631eb49d6d60e11b815260040160405180910390fd5b600054821061059f5760405163bad818f360e01b815260040160405180910390fd5b600082815260016020819052604090912001544211156105d2576040516317eeb92b60e31b815260040160405180910390fd5b600082815260016020908152604080832033845260030190915290205460ff16156106105760405163251aba6960e11b815260040160405180910390fd5b60008281526001602052604090206002015481516001600160801b03909116111561064e5760405163254082dd60e11b815260040160405180910390fd5b6000828152600160205260409020600201548151600160801b9091046001600160801b0316101561069257604051632707879b60e11b815260040160405180910390fd5b600082815260016020818152604080842033808652600390910190925292839020805460ff191690921790915590517fbe9cb8e0cb97f7a26dfb1157ad83fd3c704ba622bb3b160671cc89dca52e588091610267918591908590611055565b600082815260026020908152604080832033845260040190915281205460ff161515900361073257604051631eb49d6d60e11b815260040160405180910390fd5b600082815260026020819052604091829020908101805460ff1916841515908117909155915190917f684102838bf7c97f957e6c1fe2f1e0316964904f1575bf7de9a493b8fdab1f7d916102679186916001860191600387019160ff90911690610f85565b6003546000908152600260209081526040909120845190916107c09160018401918701906109f6565b5060028101805460ff19168315159081179091556003546040517f344a4ee11c050981b3cfdbc9ebfb417404a057d40c7f019607da26a367b63e929261081092918891889160ff90911690611088565b60405180910390a160005b85518110156108f557600182600401600088848151811061083e5761083e6110b3565b60200260200101516001600160a01b03166001600160a01b0316815260200190815260200160002060006101000a81548160ff0219169083151502179055507f20d3ab79c52737bd3710fa271972a0087df86a770f12aff0209abdbc69960f386003548783815181106108b3576108b36110b3565b60200260200101516040516108db9291909182526001600160a01b0316602082015260400190565b60405180910390a1806108ed816110c9565b91505061081b565b505060038054600101905550505050565b6000828152600260205260408120905b82518110156109f0576001826004016000858481518110610939576109396110b3565b60200260200101516001600160a01b03166001600160a01b0316815260200190815260200160002060006101000a81548160ff0219169083151502179055507f20d3ab79c52737bd3710fa271972a0087df86a770f12aff0209abdbc69960f386003548483815181106109ae576109ae6110b3565b60200260200101516040516109d69291909182526001600160a01b0316602082015260400190565b60405180910390a1806109e8816110c9565b915050610916565b50505050565b828054610a0290610eac565b90600052602060002090601f016020900481019282610a245760008555610a6a565b82601f10610a3d57805160ff1916838001178555610a6a565b82800160010185558215610a6a579182015b82811115610a6a578251825591602001919060010190610a4f565b50610a76929150610a7a565b5090565b5b80821115610a765760008155600101610a7b565b634e487b7160e01b600052604160045260246000fd5b604051601f8201601f1916810167ffffffffffffffff81118282101715610ace57610ace610a8f565b604052919050565b600082601f830112610ae757600080fd5b813567ffffffffffffffff811115610b0157610b01610a8f565b610b14601f8201601f1916602001610aa5565b818152846020838601011115610b2957600080fd5b816020850160208301376000918101602001919091529392505050565b60008060408385031215610b5957600080fd5b82359150602083013567ffffffffffffffff811115610b7757600080fd5b610b8385828601610ad6565b9150509250929050565b80356001600160801b0381168114610ba457600080fd5b919050565b600080600080600060a08688031215610bc157600080fd5b85359450602086013567ffffffffffffffff811115610bdf57600080fd5b610beb88828901610ad6565b94505060408601359250610c0160608701610b8d565b9150610c0f60808701610b8d565b90509295509295909350565b600060208284031215610c2d57600080fd5b5035919050565b6000815180845260005b81811015610c5a57602081850181015186830182015201610c3e565b81811115610c6c576000602083870101525b50601f01601f19169290920160200192915050565b848152608060208201526000610c9a6080830186610c34565b84151560408401528281036060840152610cb48185610c34565b979650505050505050565b600080600060608486031215610cd457600080fd5b8335925060208401359150604084013567ffffffffffffffff811115610cf957600080fd5b610d0586828701610ad6565b9150509250925092565b80358015158114610ba457600080fd5b60008060408385031215610d3257600080fd5b82359150610d4260208401610d0f565b90509250929050565b600082601f830112610d5c57600080fd5b8135602067ffffffffffffffff821115610d7857610d78610a8f565b8160051b610d87828201610aa5565b9283528481018201928281019087851115610da157600080fd5b83870192505b84831015610cb45782356001600160a01b0381168114610dc75760008081fd5b82529183019190830190610da7565b60008060008060808587031215610dec57600080fd5b843567ffffffffffffffff80821115610e0457600080fd5b610e1088838901610d4b565b95506020870135915080821115610e2657600080fd5b610e3288838901610ad6565b94506040870135915080821115610e4857600080fd5b50610e5587828801610ad6565b925050610e6460608601610d0f565b905092959194509250565b60008060408385031215610e8257600080fd5b82359150602083013567ffffffffffffffff811115610ea057600080fd5b610b8385828601610d4b565b600181811c90821680610ec057607f821691505b602082108103610ee057634e487b7160e01b600052602260045260246000fd5b50919050565b8054600090600181811c9080831680610f0057607f831692505b60208084108203610f2157634e487b7160e01b600052602260045260246000fd5b83885260208801828015610f3c5760018114610f4d57610f78565b60ff19871682528282019750610f78565b60008981526020902060005b87811015610f7257815484820152908601908401610f59565b83019850505b5050505050505092915050565b848152608060208201526000610f9e6080830186610ee6565b8281036040840152610fb08186610ee6565b915050821515606083015295945050505050565b888152602081018890526001600160a01b038716604082015261010060608201819052600090610ff683820189610c34565b6080840197909752505060a08101939093526001600160801b0391821660c08401521660e090910152949350505050565b634e487b7160e01b600052601160045260246000fd5b6000821982111561105057611050611027565b500190565b8381526001600160a01b038316602082015260606040820181905260009061107f90830184610c34565b95945050505050565b8481526080602082015260006110a16080830186610c34565b8281036040840152610fb08186610c34565b634e487b7160e01b600052603260045260246000fd5b6000600182016110db576110db611027565b506001019056fea2646970667358221220401e29dd6a4a507031a6368873ca047fdd5ce630fc97e3a17158e7989a64dbad64736f6c634300080d0033",
    "linkReferences": {}
  },
  "methodIdentifiers": {
    "addResponders(uint256,address[])": "f61044da",
    "createInstance(address[],string,string,bool)": "f2e7162d",
    "createPrompt(uint256,string,uint256,uint128,uint128)": "5542bbae",
    "currentPromptId()": "17e7d99d",
    "instances(uint256)": "a2f7b3a5",
    "prompts(uint256)": "d4cf9af7",
    "respond(uint256,uint256,string)": "c0b93167",
    "updateDescription(uint256,string)": "14dee4b3",
    "updateVisibility(uint256,bool)": "cb90a803"
  },
  "id": 10
}