{
  "abi": [
    {
      "inputs": [],
      "name": "AlreadyResponded",
      "type": "error"
    },
    {
      "inputs": [],
      "name": "InvalidPrompt",
      "type": "error"
    },
    {
      "inputs": [],
      "name": "InvalidPromptID",
      "type": "error"
    },
    {
      "inputs": [],
      "name": "InvalidPromptParams",
      "type": "error"
    },
    {
      "inputs": [],
      "name": "PromptExpired",
      "type": "error"
    },
    {
      "inputs": [],
      "name": "ResponseTooLong",
      "type": "error"
    },
    {
      "inputs": [],
      "name": "ResponseTooShort",
      "type": "error"
    },
    {
      "anonymous": false,
      "inputs": [
        {
          "indexed": false,
          "internalType": "uint256",
          "name": "promptId",
          "type": "uint256"
        },
        {
          "indexed": false,
          "internalType": "address",
          "name": "creator",
          "type": "address"
        },
        {
          "indexed": false,
          "internalType": "string",
          "name": "prompt",
          "type": "string"
        },
        {
          "indexed": false,
          "internalType": "uint256",
          "name": "startTime",
          "type": "uint256"
        },
        {
          "indexed": false,
          "internalType": "uint256",
          "name": "endTime",
          "type": "uint256"
        },
        {
          "indexed": false,
          "internalType": "uint128",
          "name": "minChars",
          "type": "uint128"
        },
        {
          "indexed": false,
          "internalType": "uint128",
          "name": "maxChars",
          "type": "uint128"
        }
      ],
      "name": "PromptCreated",
      "type": "event"
    },
    {
      "anonymous": false,
      "inputs": [
        {
          "indexed": false,
          "internalType": "uint256",
          "name": "promptId",
          "type": "uint256"
        },
        {
          "indexed": false,
          "internalType": "address",
          "name": "responder",
          "type": "address"
        },
        {
          "indexed": false,
          "internalType": "string",
          "name": "response",
          "type": "string"
        }
      ],
      "name": "PromptResponse",
      "type": "event"
    },
    {
      "inputs": [
        {
          "internalType": "string",
          "name": "prompt",
          "type": "string"
        },
        {
          "internalType": "uint256",
          "name": "endTime",
          "type": "uint256"
        },
        {
          "internalType": "uint128",
          "name": "minChars",
          "type": "uint128"
        },
        {
          "internalType": "uint128",
          "name": "maxChars",
          "type": "uint128"
        }
      ],
      "name": "create",
      "outputs": [],
      "stateMutability": "nonpayable",
      "type": "function"
    },
    {
      "inputs": [],
      "name": "currentPromptId",
      "outputs": [
        {
          "internalType": "uint256",
          "name": "",
          "type": "uint256"
        }
      ],
      "stateMutability": "view",
      "type": "function"
    },
    {
      "inputs": [
        {
          "internalType": "uint256",
          "name": "",
          "type": "uint256"
        }
      ],
      "name": "prompts",
      "outputs": [
        {
          "internalType": "uint256",
          "name": "startTime",
          "type": "uint256"
        },
        {
          "internalType": "uint256",
          "name": "endTime",
          "type": "uint256"
        },
        {
          "internalType": "uint128",
          "name": "minChars",
          "type": "uint128"
        },
        {
          "internalType": "uint128",
          "name": "maxChars",
          "type": "uint128"
        }
      ],
      "stateMutability": "view",
      "type": "function"
    },
    {
      "inputs": [
        {
          "internalType": "uint256",
          "name": "promptId",
          "type": "uint256"
        },
        {
          "internalType": "string",
          "name": "response",
          "type": "string"
        }
      ],
      "name": "respond",
      "outputs": [],
      "stateMutability": "nonpayable",
      "type": "function"
    }
  ],
  "bytecode": {
    "object": "0x60806040526000805534801561001457600080fd5b50610682806100246000396000f3fe608060405234801561001057600080fd5b506004361061004c5760003560e01c806317e7d99d14610051578063bfa810db1461006d578063d4cf9af714610082578063d8fcb578146100f3575b600080fd5b61005a60005481565b6040519081526020015b60405180910390f35b61008061007b366004610485565b610106565b005b6100c46100903660046104ed565b60016020819052600091825260409091208054918101546002909101546001600160801b0380821691600160801b90041684565b6040805194855260208501939093526001600160801b0391821692840192909252166060820152608001610064565b610080610101366004610506565b610246565b8351600003610128576040516345df16e360e11b815260040160405180910390fd5b806001600160801b0316826001600160801b0316111561015b57604051633e740fb360e21b815260040160405180910390fd5b6000826001600160801b03161161018557604051633e740fb360e21b815260040160405180910390fd5b611000816001600160801b0316106101b057604051633e740fb360e21b815260040160405180910390fd5b600080548152600160208190526040808320428082559281018790556001600160801b03858116600160801b02908716176002820155925490517fab7be343fe9a457e76003123d1df41b4e3c19e374de088eb3805db5a4432f35292610220929133918a918a908a908a9061059a565b60405180910390a1600160008082825461023a91906105f3565b90915550505050505050565b60005482106102685760405163bad818f360e01b815260040160405180910390fd5b6000828152600160208190526040909120015442111561029b576040516317eeb92b60e31b815260040160405180910390fd5b600082815260016020908152604080832033845260030190915290205460ff16156102d95760405163251aba6960e11b815260040160405180910390fd5b60008281526001602052604090206002015481516001600160801b0390911611156103175760405163254082dd60e11b815260040160405180910390fd5b6000828152600160205260409020600201548151600160801b9091046001600160801b0316101561035b57604051632707879b60e11b815260040160405180910390fd5b600082815260016020818152604080842033808652600390910190925292839020805460ff191690921790915590517fbe9cb8e0cb97f7a26dfb1157ad83fd3c704ba622bb3b160671cc89dca52e5880916103ba918591908590610619565b60405180910390a15050565b634e487b7160e01b600052604160045260246000fd5b600082601f8301126103ed57600080fd5b813567ffffffffffffffff80821115610408576104086103c6565b604051601f8301601f19908116603f01168101908282118183101715610430576104306103c6565b8160405283815286602085880101111561044957600080fd5b836020870160208301376000602085830101528094505050505092915050565b80356001600160801b038116811461048057600080fd5b919050565b6000806000806080858703121561049b57600080fd5b843567ffffffffffffffff8111156104b257600080fd5b6104be878288016103dc565b945050602085013592506104d460408601610469565b91506104e260608601610469565b905092959194509250565b6000602082840312156104ff57600080fd5b5035919050565b6000806040838503121561051957600080fd5b82359150602083013567ffffffffffffffff81111561053757600080fd5b610543858286016103dc565b9150509250929050565b6000815180845260005b8181101561057357602081850181015186830182015201610557565b81811115610585576000602083870101525b50601f01601f19169290920160200192915050565b8781526001600160a01b038716602082015260e0604082018190526000906105c49083018861054d565b60608301969096525060808101939093526001600160801b0391821660a08401521660c0909101529392505050565b6000821982111561061457634e487b7160e01b600052601160045260246000fd5b500190565b8381526001600160a01b03831660208201526060604082018190526000906106439083018461054d565b9594505050505056fea2646970667358221220731dbb55689755fa57e8a402bb6289fc21c8822dc6a290fb0f6ab6d20d8a39ee64736f6c634300080d0033",
    "linkReferences": {}
  }
}