{
  "abi": [
    {
      "inputs": [],
      "name": "AlreadyResponded",
      "type": "error"
    },
    {
      "inputs": [],
      "name": "InvalidPrompt",
      "type": "error"
    },
    {
      "inputs": [],
      "name": "InvalidPromptID",
      "type": "error"
    },
    {
      "inputs": [],
      "name": "InvalidPromptParams",
      "type": "error"
    },
    {
      "inputs": [],
      "name": "NotAllowed",
      "type": "error"
    },
    {
      "inputs": [],
      "name": "PromptExpired",
      "type": "error"
    },
    {
      "inputs": [],
      "name": "ResponseTooLong",
      "type": "error"
    },
    {
      "inputs": [],
      "name": "ResponseTooShort",
      "type": "error"
    },
    {
      "anonymous": false,
      "inputs": [
        {
          "indexed": false,
          "internalType": "uint256",
          "name": "id",
          "type": "uint256"
        },
        {
          "indexed": false,
          "internalType": "string",
          "name": "name",
          "type": "string"
        }
      ],
      "name": "InstanceCreated",
      "type": "event"
    },
    {
      "anonymous": false,
      "inputs": [
        {
          "indexed": false,
          "internalType": "uint256",
          "name": "instanceId",
          "type": "uint256"
        },
        {
          "indexed": false,
          "internalType": "uint256",
          "name": "promptId",
          "type": "uint256"
        },
        {
          "indexed": false,
          "internalType": "address",
          "name": "creator",
          "type": "address"
        },
        {
          "indexed": false,
          "internalType": "string",
          "name": "prompt",
          "type": "string"
        },
        {
          "indexed": false,
          "internalType": "uint256",
          "name": "startTime",
          "type": "uint256"
        },
        {
          "indexed": false,
          "internalType": "uint256",
          "name": "endTime",
          "type": "uint256"
        },
        {
          "indexed": false,
          "internalType": "uint128",
          "name": "minChars",
          "type": "uint128"
        },
        {
          "indexed": false,
          "internalType": "uint128",
          "name": "maxChars",
          "type": "uint128"
        }
      ],
      "name": "PromptCreated",
      "type": "event"
    },
    {
      "anonymous": false,
      "inputs": [
        {
          "indexed": false,
          "internalType": "uint256",
          "name": "promptId",
          "type": "uint256"
        },
        {
          "indexed": false,
          "internalType": "address",
          "name": "responder",
          "type": "address"
        },
        {
          "indexed": false,
          "internalType": "string",
          "name": "response",
          "type": "string"
        }
      ],
      "name": "PromptResponse",
      "type": "event"
    },
    {
      "anonymous": false,
      "inputs": [
        {
          "indexed": false,
          "internalType": "uint256",
          "name": "instanceId",
          "type": "uint256"
        },
        {
          "indexed": false,
          "internalType": "address",
          "name": "responder",
          "type": "address"
        }
      ],
      "name": "ResponderAdded",
      "type": "event"
    },
    {
      "inputs": [
        {
          "internalType": "uint256",
          "name": "instanceID",
          "type": "uint256"
        },
        {
          "internalType": "address",
          "name": "responder",
          "type": "address"
        }
      ],
      "name": "addResponder",
      "outputs": [],
      "stateMutability": "nonpayable",
      "type": "function"
    },
    {
      "inputs": [
        {
          "internalType": "address[]",
          "name": "allowedResponders",
          "type": "address[]"
        },
        {
          "internalType": "string",
          "name": "name",
          "type": "string"
        }
      ],
      "name": "createInstance",
      "outputs": [],
      "stateMutability": "nonpayable",
      "type": "function"
    },
    {
      "inputs": [
        {
          "internalType": "uint256",
          "name": "instanceId",
          "type": "uint256"
        },
        {
          "internalType": "string",
          "name": "prompt",
          "type": "string"
        },
        {
          "internalType": "uint256",
          "name": "endTime",
          "type": "uint256"
        },
        {
          "internalType": "uint128",
          "name": "minChars",
          "type": "uint128"
        },
        {
          "internalType": "uint128",
          "name": "maxChars",
          "type": "uint128"
        }
      ],
      "name": "createPrompt",
      "outputs": [],
      "stateMutability": "nonpayable",
      "type": "function"
    },
    {
      "inputs": [],
      "name": "currentPromptId",
      "outputs": [
        {
          "internalType": "uint256",
          "name": "",
          "type": "uint256"
        }
      ],
      "stateMutability": "view",
      "type": "function"
    },
    {
      "inputs": [
        {
          "internalType": "uint256",
          "name": "",
          "type": "uint256"
        }
      ],
      "name": "instances",
      "outputs": [
        {
          "internalType": "uint256",
          "name": "id",
          "type": "uint256"
        },
        {
          "internalType": "string",
          "name": "name",
          "type": "string"
        }
      ],
      "stateMutability": "view",
      "type": "function"
    },
    {
      "inputs": [
        {
          "internalType": "uint256",
          "name": "",
          "type": "uint256"
        }
      ],
      "name": "prompts",
      "outputs": [
        {
          "internalType": "uint256",
          "name": "startTime",
          "type": "uint256"
        },
        {
          "internalType": "uint256",
          "name": "endTime",
          "type": "uint256"
        },
        {
          "internalType": "uint128",
          "name": "minChars",
          "type": "uint128"
        },
        {
          "internalType": "uint128",
          "name": "maxChars",
          "type": "uint128"
        }
      ],
      "stateMutability": "view",
      "type": "function"
    },
    {
      "inputs": [
        {
          "internalType": "uint256",
          "name": "promptId",
          "type": "uint256"
        },
        {
          "internalType": "string",
          "name": "response",
          "type": "string"
        }
      ],
      "name": "respond",
      "outputs": [],
      "stateMutability": "nonpayable",
      "type": "function"
    }
  ],
  "bytecode": {
    "object": "0x60806040526000805534801561001457600080fd5b50610c24806100246000396000f3fe608060405234801561001057600080fd5b506004361061007d5760003560e01c8063a836afab1161005b578063a836afab146100d4578063d4cf9af7146100e7578063d715bc7614610158578063d8fcb5781461016b57600080fd5b806317e7d99d146100825780635542bbae1461009e578063a2f7b3a5146100b3575b600080fd5b61008b60005481565b6040519081526020015b60405180910390f35b6100b16100ac366004610879565b61017e565b005b6100c66100c13660046108eb565b610303565b604051610095929190610951565b6100b16100e2366004610989565b6103a8565b6101296100f53660046108eb565b60016020819052600091825260409091208054918101546002909101546001600160801b0380821691600160801b90041684565b6040805194855260208501939093526001600160801b0391821692840192909252166060820152608001610095565b6100b16101663660046109b5565b61043c565b6100b1610179366004610a84565b61058d565b6000858152600260208181526040808420338552909201905281205460ff16151590036101be57604051631eb49d6d60e11b815260040160405180910390fd5b83516000036101e0576040516345df16e360e11b815260040160405180910390fd5b806001600160801b0316826001600160801b0316111561021357604051633e740fb360e21b815260040160405180910390fd5b6000826001600160801b03161161023d57604051633e740fb360e21b815260040160405180910390fd5b611000816001600160801b03161061026857604051633e740fb360e21b815260040160405180910390fd5b600080548152600160208190526040808320428082559281018790556001600160801b03858116600160801b02908716176002820155925490517f70b5821a021a727fb4dfb84b978ae0630559f379dc74f488ef8315f4a1bbfd4f926102dc928a92909133918b91908b908b908b90610ac1565b60405180910390a160016000808282546102f69190610b3a565b9091555050505050505050565b6002602052600090815260409020805460018201805491929161032590610b52565b80601f016020809104026020016040519081016040528092919081815260200182805461035190610b52565b801561039e5780601f106103735761010080835404028352916020019161039e565b820191906000526020600020905b81548152906001019060200180831161038157829003601f168201915b5050505050905082565b60008281526002602081815260408084206001600160a01b03861685529283019091529091205460ff16610437576001600160a01b0382166000818152600283016020908152604091829020805460ff191660011790558151868152908101929092527f20d3ab79c52737bd3710fa271972a0087df86a770f12aff0209abdbc69960f38910160405180910390a15b505050565b60035460009081526002602090815260409091208251909161046591600184019185019061070d565b507f12a37195fcb94c4dd39071e7d48a098630635e5ad29d4bcc83a4393278045b7a60035483604051610499929190610951565b60405180910390a160005b835181101561057e5760018260020160008684815181106104c7576104c7610b8c565b60200260200101516001600160a01b03166001600160a01b0316815260200190815260200160002060006101000a81548160ff0219169083151502179055507f20d3ab79c52737bd3710fa271972a0087df86a770f12aff0209abdbc69960f3860035485838151811061053c5761053c610b8c565b60200260200101516040516105649291909182526001600160a01b0316602082015260400190565b60405180910390a18061057681610ba2565b9150506104a4565b50506003805460010190555050565b60005482106105af5760405163bad818f360e01b815260040160405180910390fd5b600082815260016020819052604090912001544211156105e2576040516317eeb92b60e31b815260040160405180910390fd5b600082815260016020908152604080832033845260030190915290205460ff16156106205760405163251aba6960e11b815260040160405180910390fd5b60008281526001602052604090206002015481516001600160801b03909116111561065e5760405163254082dd60e11b815260040160405180910390fd5b6000828152600160205260409020600201548151600160801b9091046001600160801b031610156106a257604051632707879b60e11b815260040160405180910390fd5b600082815260016020818152604080842033808652600390910190925292839020805460ff191690921790915590517fbe9cb8e0cb97f7a26dfb1157ad83fd3c704ba622bb3b160671cc89dca52e588091610701918591908590610bbb565b60405180910390a15050565b82805461071990610b52565b90600052602060002090601f01602090048101928261073b5760008555610781565b82601f1061075457805160ff1916838001178555610781565b82800160010185558215610781579182015b82811115610781578251825591602001919060010190610766565b5061078d929150610791565b5090565b5b8082111561078d5760008155600101610792565b634e487b7160e01b600052604160045260246000fd5b604051601f8201601f1916810167ffffffffffffffff811182821017156107e5576107e56107a6565b604052919050565b600082601f8301126107fe57600080fd5b813567ffffffffffffffff811115610818576108186107a6565b61082b601f8201601f19166020016107bc565b81815284602083860101111561084057600080fd5b816020850160208301376000918101602001919091529392505050565b80356001600160801b038116811461087457600080fd5b919050565b600080600080600060a0868803121561089157600080fd5b85359450602086013567ffffffffffffffff8111156108af57600080fd5b6108bb888289016107ed565b945050604086013592506108d16060870161085d565b91506108df6080870161085d565b90509295509295909350565b6000602082840312156108fd57600080fd5b5035919050565b6000815180845260005b8181101561092a5760208185018101518683018201520161090e565b8181111561093c576000602083870101525b50601f01601f19169290920160200192915050565b82815260406020820152600061096a6040830184610904565b949350505050565b80356001600160a01b038116811461087457600080fd5b6000806040838503121561099c57600080fd5b823591506109ac60208401610972565b90509250929050565b600080604083850312156109c857600080fd5b823567ffffffffffffffff808211156109e057600080fd5b818501915085601f8301126109f457600080fd5b8135602082821115610a0857610a086107a6565b8160051b610a178282016107bc565b928352848101820192828101908a851115610a3157600080fd5b958301955b84871015610a5657610a4787610972565b82529583019590830190610a36565b9750505086013592505080821115610a6d57600080fd5b50610a7a858286016107ed565b9150509250929050565b60008060408385031215610a9757600080fd5b82359150602083013567ffffffffffffffff811115610ab557600080fd5b610a7a858286016107ed565b888152602081018890526001600160a01b038716604082015261010060608201819052600090610af383820189610904565b6080840197909752505060a08101939093526001600160801b0391821660c08401521660e090910152949350505050565b634e487b7160e01b600052601160045260246000fd5b60008219821115610b4d57610b4d610b24565b500190565b600181811c90821680610b6657607f821691505b602082108103610b8657634e487b7160e01b600052602260045260246000fd5b50919050565b634e487b7160e01b600052603260045260246000fd5b600060018201610bb457610bb4610b24565b5060010190565b8381526001600160a01b0383166020820152606060408201819052600090610be590830184610904565b9594505050505056fea26469706673582212207bef5fdd5ea939eaefc8e29369db06401634e0717757f06d0bb0646768bcfef064736f6c634300080d0033",
    "linkReferences": {}
  },
  "methodIdentifiers": {
    "addResponder(uint256,address)": "a836afab",
    "createInstance(address[],string)": "d715bc76",
    "createPrompt(uint256,string,uint256,uint128,uint128)": "5542bbae",
    "currentPromptId()": "17e7d99d",
    "instances(uint256)": "a2f7b3a5",
    "prompts(uint256)": "d4cf9af7",
    "respond(uint256,string)": "d8fcb578"
  },
  "id": 10
}