{
  "abi": [
    {
      "inputs": [],
      "name": "AlreadyResponded",
      "type": "error"
    },
    {
      "inputs": [],
      "name": "InvalidPrompt",
      "type": "error"
    },
    {
      "inputs": [],
      "name": "InvalidPromptID",
      "type": "error"
    },
    {
      "inputs": [],
      "name": "InvalidPromptParams",
      "type": "error"
    },
    {
      "inputs": [],
      "name": "NotAllowed",
      "type": "error"
    },
    {
      "inputs": [],
      "name": "PromptExpired",
      "type": "error"
    },
    {
      "inputs": [],
      "name": "ResponseTooLong",
      "type": "error"
    },
    {
      "inputs": [],
      "name": "ResponseTooShort",
      "type": "error"
    },
    {
      "anonymous": false,
      "inputs": [
        {
          "indexed": false,
          "internalType": "uint256",
          "name": "id",
          "type": "uint256"
        },
        {
          "indexed": false,
          "internalType": "string",
          "name": "name",
          "type": "string"
        },
        {
          "indexed": false,
          "internalType": "string",
          "name": "description",
          "type": "string"
        },
        {
          "indexed": false,
          "internalType": "bool",
          "name": "isVisible",
          "type": "bool"
        }
      ],
      "name": "InstanceCreated",
      "type": "event"
    },
    {
      "anonymous": false,
      "inputs": [
        {
          "indexed": false,
          "internalType": "uint256",
          "name": "id",
          "type": "uint256"
        },
        {
          "indexed": false,
          "internalType": "string",
          "name": "name",
          "type": "string"
        },
        {
          "indexed": false,
          "internalType": "string",
          "name": "description",
          "type": "string"
        },
        {
          "indexed": false,
          "internalType": "bool",
          "name": "isVisible",
          "type": "bool"
        }
      ],
      "name": "InstanceUpdated",
      "type": "event"
    },
    {
      "anonymous": false,
      "inputs": [
        {
          "indexed": false,
          "internalType": "uint256",
          "name": "instanceId",
          "type": "uint256"
        },
        {
          "indexed": false,
          "internalType": "uint256",
          "name": "promptId",
          "type": "uint256"
        },
        {
          "indexed": false,
          "internalType": "address",
          "name": "creator",
          "type": "address"
        },
        {
          "indexed": false,
          "internalType": "string",
          "name": "prompt",
          "type": "string"
        },
        {
          "indexed": false,
          "internalType": "uint256",
          "name": "startTime",
          "type": "uint256"
        },
        {
          "indexed": false,
          "internalType": "uint256",
          "name": "endTime",
          "type": "uint256"
        },
        {
          "indexed": false,
          "internalType": "uint128",
          "name": "minChars",
          "type": "uint128"
        },
        {
          "indexed": false,
          "internalType": "uint128",
          "name": "maxChars",
          "type": "uint128"
        }
      ],
      "name": "PromptCreated",
      "type": "event"
    },
    {
      "anonymous": false,
      "inputs": [
        {
          "indexed": false,
          "internalType": "uint256",
          "name": "promptId",
          "type": "uint256"
        },
        {
          "indexed": false,
          "internalType": "address",
          "name": "responder",
          "type": "address"
        },
        {
          "indexed": false,
          "internalType": "string",
          "name": "response",
          "type": "string"
        }
      ],
      "name": "PromptResponse",
      "type": "event"
    },
    {
      "anonymous": false,
      "inputs": [
        {
          "indexed": false,
          "internalType": "uint256",
          "name": "instanceId",
          "type": "uint256"
        },
        {
          "indexed": false,
          "internalType": "address",
          "name": "responder",
          "type": "address"
        }
      ],
      "name": "ResponderAdded",
      "type": "event"
    },
    {
      "inputs": [
        {
          "internalType": "uint256",
          "name": "instanceID",
          "type": "uint256"
        },
        {
          "internalType": "address[]",
          "name": "allowedResponders",
          "type": "address[]"
        }
      ],
      "name": "addResponders",
      "outputs": [],
      "stateMutability": "nonpayable",
      "type": "function"
    },
    {
      "inputs": [
        {
          "internalType": "address[]",
          "name": "allowedResponders",
          "type": "address[]"
        },
        {
          "internalType": "string",
          "name": "name",
          "type": "string"
        },
        {
          "internalType": "string",
          "name": "description",
          "type": "string"
        },
        {
          "internalType": "bool",
          "name": "isVisible",
          "type": "bool"
        }
      ],
      "name": "createInstance",
      "outputs": [],
      "stateMutability": "nonpayable",
      "type": "function"
    },
    {
      "inputs": [
        {
          "internalType": "uint256",
          "name": "instanceId",
          "type": "uint256"
        },
        {
          "internalType": "string",
          "name": "prompt",
          "type": "string"
        },
        {
          "internalType": "uint256",
          "name": "endTime",
          "type": "uint256"
        },
        {
          "internalType": "uint128",
          "name": "minChars",
          "type": "uint128"
        },
        {
          "internalType": "uint128",
          "name": "maxChars",
          "type": "uint128"
        }
      ],
      "name": "createPrompt",
      "outputs": [],
      "stateMutability": "nonpayable",
      "type": "function"
    },
    {
      "inputs": [],
      "name": "currentPromptId",
      "outputs": [
        {
          "internalType": "uint256",
          "name": "",
          "type": "uint256"
        }
      ],
      "stateMutability": "view",
      "type": "function"
    },
    {
      "inputs": [
        {
          "internalType": "uint256",
          "name": "",
          "type": "uint256"
        }
      ],
      "name": "instances",
      "outputs": [
        {
          "internalType": "uint256",
          "name": "id",
          "type": "uint256"
        },
        {
          "internalType": "string",
          "name": "name",
          "type": "string"
        },
        {
          "internalType": "bool",
          "name": "isVisible",
          "type": "bool"
        },
        {
          "internalType": "string",
          "name": "description",
          "type": "string"
        }
      ],
      "stateMutability": "view",
      "type": "function"
    },
    {
      "inputs": [
        {
          "internalType": "uint256",
          "name": "",
          "type": "uint256"
        }
      ],
      "name": "prompts",
      "outputs": [
        {
          "internalType": "uint256",
          "name": "startTime",
          "type": "uint256"
        },
        {
          "internalType": "uint256",
          "name": "endTime",
          "type": "uint256"
        },
        {
          "internalType": "uint128",
          "name": "minChars",
          "type": "uint128"
        },
        {
          "internalType": "uint128",
          "name": "maxChars",
          "type": "uint128"
        }
      ],
      "stateMutability": "view",
      "type": "function"
    },
    {
      "inputs": [
        {
          "internalType": "uint256",
          "name": "instanceId",
          "type": "uint256"
        },
        {
          "internalType": "uint256",
          "name": "promptId",
          "type": "uint256"
        },
        {
          "internalType": "string",
          "name": "response",
          "type": "string"
        }
      ],
      "name": "respond",
      "outputs": [],
      "stateMutability": "nonpayable",
      "type": "function"
    },
    {
      "inputs": [
        {
          "internalType": "uint256",
          "name": "instanceId",
          "type": "uint256"
        },
        {
          "internalType": "string",
          "name": "newName",
          "type": "string"
        },
        {
          "internalType": "string",
          "name": "newDescription",
          "type": "string"
        },
        {
          "internalType": "bool",
          "name": "newIsVisible",
          "type": "bool"
        },
        {
          "internalType": "address[]",
          "name": "newAllowedResponders",
          "type": "address[]"
        }
      ],
      "name": "updateSettings",
      "outputs": [],
      "stateMutability": "nonpayable",
      "type": "function"
    }
  ],
  "bytecode": {
    "object": "0x60806040526000805534801561001457600080fd5b506110c2806100246000396000f3fe608060405234801561001057600080fd5b50600436106100885760003560e01c8063c0b931671161005b578063c0b93167146100f4578063d4cf9af714610107578063f2e7162d14610178578063f61044da1461018b57600080fd5b806317e7d99d1461008d578063493d5fe5146100a95780635542bbae146100be578063a2f7b3a5146100d1575b600080fd5b61009660005481565b6040519081526020015b60405180910390f35b6100bc6100b7366004610b61565b61019e565b005b6100bc6100cc366004610c1b565b61027d565b6100e46100df366004610c8d565b610403565b6040516100a09493929190610cf3565b6100bc610102366004610d26565b610545565b610149610115366004610c8d565b60016020819052600091825260409091208054918101546002909101546001600160801b0380821691600160801b90041684565b6040805194855260208501939093526001600160801b03918216928401929092521660608201526080016100a0565b6100bc610186366004610d76565b610707565b6100bc610199366004610e0f565b610876565b600085815260026020908152604080832033845260048101909252822054909160ff909116151590036101e457604051631eb49d6d60e11b815260040160405180910390fd5b84516101f99060018301906020880190610966565b50835161020f9060038301906020870190610966565b5060028101805460ff191684151517905561022a8683610876565b60028101546040517f684102838bf7c97f957e6c1fe2f1e0316964904f1575bf7de9a493b8fdab1f7d9161026d9189916001860191600387019160ff1690610f2f565b60405180910390a1505050505050565b600085815260026020908152604080832033845260040190915281205460ff16151590036102be57604051631eb49d6d60e11b815260040160405180910390fd5b83516000036102e0576040516345df16e360e11b815260040160405180910390fd5b806001600160801b0316826001600160801b0316111561031357604051633e740fb360e21b815260040160405180910390fd5b6000826001600160801b03161161033d57604051633e740fb360e21b815260040160405180910390fd5b611000816001600160801b03161061036857604051633e740fb360e21b815260040160405180910390fd5b600080548152600160208190526040808320428082559281018790556001600160801b03858116600160801b02908716176002820155925490517f70b5821a021a727fb4dfb84b978ae0630559f379dc74f488ef8315f4a1bbfd4f926103dc928a92909133918b91908b908b908b90610f6e565b60405180910390a160016000808282546103f69190610fe7565b9091555050505050505050565b6002602052600090815260409020805460018201805491929161042590610e56565b80601f016020809104026020016040519081016040528092919081815260200182805461045190610e56565b801561049e5780601f106104735761010080835404028352916020019161049e565b820191906000526020600020905b81548152906001019060200180831161048157829003601f168201915b5050506002840154600385018054949560ff9092169491935091506104c290610e56565b80601f01602080910402602001604051908101604052809291908181526020018280546104ee90610e56565b801561053b5780601f106105105761010080835404028352916020019161053b565b820191906000526020600020905b81548152906001019060200180831161051e57829003601f168201915b5050505050905084565b600083815260026020908152604080832033845260040190915281205460ff161515900361058657604051631eb49d6d60e11b815260040160405180910390fd5b60005482106105a85760405163bad818f360e01b815260040160405180910390fd5b600082815260016020819052604090912001544211156105db576040516317eeb92b60e31b815260040160405180910390fd5b600082815260016020908152604080832033845260030190915290205460ff16156106195760405163251aba6960e11b815260040160405180910390fd5b60008281526001602052604090206002015481516001600160801b0390911611156106575760405163254082dd60e11b815260040160405180910390fd5b6000828152600160205260409020600201548151600160801b9091046001600160801b0316101561069b57604051632707879b60e11b815260040160405180910390fd5b600082815260016020818152604080842033808652600390910190925292839020805460ff191690921790915590517fbe9cb8e0cb97f7a26dfb1157ad83fd3c704ba622bb3b160671cc89dca52e5880916106fa918591908590610fff565b60405180910390a1505050565b600354600090815260026020908152604090912084519091610730916001840191870190610966565b5060028101805460ff19168315159081179091556003546040517f344a4ee11c050981b3cfdbc9ebfb417404a057d40c7f019607da26a367b63e929261078092918891889160ff90911690611032565b60405180910390a160005b85518110156108655760018260040160008884815181106107ae576107ae61105d565b60200260200101516001600160a01b03166001600160a01b0316815260200190815260200160002060006101000a81548160ff0219169083151502179055507f20d3ab79c52737bd3710fa271972a0087df86a770f12aff0209abdbc69960f386003548783815181106108235761082361105d565b602002602001015160405161084b9291909182526001600160a01b0316602082015260400190565b60405180910390a18061085d81611073565b91505061078b565b505060038054600101905550505050565b6000828152600260205260408120905b82518110156109605760018260040160008584815181106108a9576108a961105d565b60200260200101516001600160a01b03166001600160a01b0316815260200190815260200160002060006101000a81548160ff0219169083151502179055507f20d3ab79c52737bd3710fa271972a0087df86a770f12aff0209abdbc69960f3860035484838151811061091e5761091e61105d565b60200260200101516040516109469291909182526001600160a01b0316602082015260400190565b60405180910390a18061095881611073565b915050610886565b50505050565b82805461097290610e56565b90600052602060002090601f01602090048101928261099457600085556109da565b82601f106109ad57805160ff19168380011785556109da565b828001600101855582156109da579182015b828111156109da5782518255916020019190600101906109bf565b506109e69291506109ea565b5090565b5b808211156109e657600081556001016109eb565b634e487b7160e01b600052604160045260246000fd5b604051601f8201601f1916810167ffffffffffffffff81118282101715610a3e57610a3e6109ff565b604052919050565b600082601f830112610a5757600080fd5b813567ffffffffffffffff811115610a7157610a716109ff565b610a84601f8201601f1916602001610a15565b818152846020838601011115610a9957600080fd5b816020850160208301376000918101602001919091529392505050565b80358015158114610ac657600080fd5b919050565b600082601f830112610adc57600080fd5b8135602067ffffffffffffffff821115610af857610af86109ff565b8160051b610b07828201610a15565b9283528481018201928281019087851115610b2157600080fd5b83870192505b84831015610b565782356001600160a01b0381168114610b475760008081fd5b82529183019190830190610b27565b979650505050505050565b600080600080600060a08688031215610b7957600080fd5b85359450602086013567ffffffffffffffff80821115610b9857600080fd5b610ba489838a01610a46565b95506040880135915080821115610bba57600080fd5b610bc689838a01610a46565b9450610bd460608901610ab6565b93506080880135915080821115610bea57600080fd5b50610bf788828901610acb565b9150509295509295909350565b80356001600160801b0381168114610ac657600080fd5b600080600080600060a08688031215610c3357600080fd5b85359450602086013567ffffffffffffffff811115610c5157600080fd5b610c5d88828901610a46565b94505060408601359250610c7360608701610c04565b9150610c8160808701610c04565b90509295509295909350565b600060208284031215610c9f57600080fd5b5035919050565b6000815180845260005b81811015610ccc57602081850181015186830182015201610cb0565b81811115610cde576000602083870101525b50601f01601f19169290920160200192915050565b848152608060208201526000610d0c6080830186610ca6565b84151560408401528281036060840152610b568185610ca6565b600080600060608486031215610d3b57600080fd5b8335925060208401359150604084013567ffffffffffffffff811115610d6057600080fd5b610d6c86828701610a46565b9150509250925092565b60008060008060808587031215610d8c57600080fd5b843567ffffffffffffffff80821115610da457600080fd5b610db088838901610acb565b95506020870135915080821115610dc657600080fd5b610dd288838901610a46565b94506040870135915080821115610de857600080fd5b50610df587828801610a46565b925050610e0460608601610ab6565b905092959194509250565b60008060408385031215610e2257600080fd5b82359150602083013567ffffffffffffffff811115610e4057600080fd5b610e4c85828601610acb565b9150509250929050565b600181811c90821680610e6a57607f821691505b602082108103610e8a57634e487b7160e01b600052602260045260246000fd5b50919050565b8054600090600181811c9080831680610eaa57607f831692505b60208084108203610ecb57634e487b7160e01b600052602260045260246000fd5b83885260208801828015610ee65760018114610ef757610f22565b60ff19871682528282019750610f22565b60008981526020902060005b87811015610f1c57815484820152908601908401610f03565b83019850505b5050505050505092915050565b848152608060208201526000610f486080830186610e90565b8281036040840152610f5a8186610e90565b915050821515606083015295945050505050565b888152602081018890526001600160a01b038716604082015261010060608201819052600090610fa083820189610ca6565b6080840197909752505060a08101939093526001600160801b0391821660c08401521660e090910152949350505050565b634e487b7160e01b600052601160045260246000fd5b60008219821115610ffa57610ffa610fd1565b500190565b8381526001600160a01b038316602082015260606040820181905260009061102990830184610ca6565b95945050505050565b84815260806020820152600061104b6080830186610ca6565b8281036040840152610f5a8186610ca6565b634e487b7160e01b600052603260045260246000fd5b60006001820161108557611085610fd1565b506001019056fea26469706673582212209ff91a7a28fa069deea61ec420562369a941ece1ddaab34d1dfaca1c6e50320a64736f6c634300080d0033",
    "linkReferences": {}
  },
  "methodIdentifiers": {
    "addResponders(uint256,address[])": "f61044da",
    "createInstance(address[],string,string,bool)": "f2e7162d",
    "createPrompt(uint256,string,uint256,uint128,uint128)": "5542bbae",
    "currentPromptId()": "17e7d99d",
    "instances(uint256)": "a2f7b3a5",
    "prompts(uint256)": "d4cf9af7",
    "respond(uint256,uint256,string)": "c0b93167",
    "updateSettings(uint256,string,string,bool,address[])": "493d5fe5"
  },
  "id": 10
}